:1000000024C048C007C66DC5A9C844C043C042C08B
:1000100027C540C03FC0CBC33DC03CC03BC03AC079
:1000200039C038C037C036C035C034C033C032C024
:1000300031C030C02FC02EC02DC003C401020480C7
:100040004020100804020108E80B11241FBECFEF66
:10005000D2E0DEBFCDBF11E0A0E0B1E0E0EEFFE115
:1000600002C005900D92A032B107D9F721E0A0E2BD
:10007000B1E001C01D92A63EB207E1F710E0C5E273
:10008000D0E003C02197FE01A3DFC432D107D1F72E
:10009000C0DBA4CFB5CFE82FF0E0E45CFF4FE491E4
:1000A000A6E3B0E0833010F0A9E3B0E08C91E82340
:1000B00081E090E011F490E080E00895CF93DF9329
:1000C000E82FF0E0E45CFF4FE491833001F18230EF
:1000D00029F48091CA008F738093CA00C8E3D0E0EE
:1000E000A2E6B0E09E2F90952FB761110BC0F89457
:1000F0008881892388838C9189238C932FBFDF91FA
:10010000CF910895F8948881E82BE883F4CF80910B
:10011000CA008F7C8093CA00CBE3D0E0A3E6B0E0B6
:10012000E1CFCF93DF9386FF04C08F739AE0981BD3
:10013000892FE82FF0E0E45CFF4FE4918B3011F061
:100140008330D0F488E390E0A7E3B0E0C2E6D0E0EB
:100150002E2F2095611117C04FB7F8943C91322390
:100160003C93DC013C9132233C93888128232883F3
:100170004FBFDF91CF9108958BE390E0AAE3B0E009
:10018000C3E6D0E0E5CF623069F44FB7F8943C9114
:1001900023232C93DC012C912E2B2C938881E82B8C
:1001A000E883E6CF9FB7F8948881282328838C9131
:1001B000E82BEC939FBFDDCF86FD8F7328B1909124
:1001C0003C019295990F907E2F71922B98B999B11D
:1001D000907C892B89B92E9A2E99FECF86B197B142
:1001E00008953FB7F8948091380190913901A0911A
:1001F0003A01B0913B0122B708B600FE05C02F3F7F
:1002000019F00196A11DB11D3FBFBA2FA92F982F3C
:100210008827BC01CD01620F711D811D911D43E036
:10022000660F771F881F991F4A95D1F70895CF92BF
:10023000DF92EF92FF92CF93DF936B017C01D1DFCE
:10024000EB01C114D104E104F10441F412C081E0D6
:10025000C81AD108E108F108C851DC4FC2DF6C1B95
:100260007D0B683E734068F3C114D104E104F104CE
:1002700071F7DF91CF91FF90EF90DF90CF900895CD
:10028000CF93DF93DC011C96ED91FC9126A137A161
:100290002032310510F5A6A1B7A1C6A1D7A120E251
:1002A00030E02A1B3B0B4217530708F49A01DB018D
:1002B000EC0FFD1FB9016E0F7F1FE617F70719F04E
:1002C0004D914193FACFDC011C96ED91FC9186A1F2
:1002D00097A1280F391F37A326A3DF91CF91089547
:1002E000DC011C96ED91FC9186A197A1809768F4A2
:1002F00086A197A19C012F5F3F4F37A326A3E80F4C
:10030000F91F608381E090E0089590E080E0089517
:10031000682F88EA91E0E4CF0895DC011C96ED9106
:10032000FC9120A131A182A193A12817390738F4AB
:1003300080A191A1E80FF91F808190E008958FEFCF
:100340009FEF0895982F82958F706AE00EDE9F7060
:10035000890F089581E080932E0161E0E2DE60E084
:1003600081E0ACCE80913001883748F080916F01F8
:10037000882329F080912F01811101C0EBCF0895CE
:10038000882339F08091520190E090932D01809361
:100390002C0180912C0190912D0184359105A0F4C0
:1003A00080912C0190912D0120912C0130912D01F3
:1003B000281B390B30932D0120932C016DE073E045
:1003C000DDDD80959095089583E590E0EDCF60E0C8
:1003D00080E074DE60E080E0A4DE109221010895E8
:1003E00081E08093210161E080E09BDE61E080E0BC
:1003F00065DE1092250108951092700160E083E09F
:100400005DCE80913201882349F081E044DE892B62
:1004100029F481E080933101EFDFD9CF08951FBC2B
:100420001EBC8EB584608EBD8EB581608EBD709A07
:1004300081E0A6DF9DBD8CBD789A0895DC011C96F5
:10044000ED91FC9120A131A182A193A12817390738
:1004500060F480A191A19C012F5F3F4F31A320A3A5
:10046000E80FF91F808190E008958FEF9FEF0895C6
:10047000DC011C96ED91FC9182A193A120A131A1F8
:10048000821B930B0895662351F088EA91E0F0DF18
:10049000892B29F088EA91E0D1DF8093220181E065
:1004A0000895DC019C96EC919C979D962C91E21707
:1004B00030F4E80FF92FF11D848590E008958FEF57
:1004C0009FEF0895FC0194A585A52FEF3FEF9817A6
:1004D00040F4DF01A90FB11D1C962C9130E09F5F05
:1004E00094A7C9010895FC0185A594A5891B990BC2
:1004F0000895CF92DF92EF92FF920F931F93CF93C5
:10050000DF936C01EB017B01E40EF51E10E000E0CF
:10051000CE15DF0561F06991D601ED91FC91019056
:10052000F081E02DC6010995080F191FF1CFC80110
:10053000DF91CF911F910F91FF90EF90DF90CF90BF
:1005400008950F931F93CF93082F10E0F801E35CF9
:10055000FE4F6083823358F4C62FC801CDDAC81726
:1005600031F06C2FC801CF911F910F91CDCACF915F
:100570001F910F9108958F929F92AF92BF92CF9249
:10058000DF92EF92FF92CF9381E416DE7C016091BF
:100590005501062E000C770B880B990BC7DB20E06A
:1005A00030E048EC52E427DB4B015C01B701FF0C63
:1005B000880B990BBBDB20E93BE04BE75DE36ADC92
:1005C0009B01AC01C501B401AEDA6B017C0180DB9B
:1005D000C62F81E0B6DF6C2F70E090E080E0A6DBF4
:1005E0009B01AC01C701B6019DDA20E030E048EC88
:1005F00052E450DC6DDB82E0A4DFC701B601CF918D
:10060000FF90EF90DF90CF90BF90AF909F908F9032
:100610000895CF92DF92EF92FF92CF93C5B12F9AB8
:1006200081E4CADDBC01990F880B990B7FDB20E9BF
:100630003BE04BE75DE32EDC6B017C01C5B9C1E01B
:1006400020E030E048EA50E421DC18160CF0C0E06D
:100650006C2F87E076DFC701B601CF91FF90EF9056
:10066000DF90CF90089581E0809370011092300167
:1006700061E083E023DDCDCFCF92DF92EF92FF9256
:10068000CF9378982F9885B7877E806185BF85B78F
:10069000806285BF80E28BBF82E080BD789481E07C
:1006A00080932701889580912701882309F45CC0F5
:1006B000809120018F5F8093200190914F01809164
:1006C0002001891708F450C0109220018091510137
:1006D000882349F0C091510183DE6C2F70E090E0D7
:1006E00080E0A5DD74DE80915401882359F0C0912B
:1006F000540161E083E0E2DC6C2F70E090E080E088
:1007000096DD7ADE86DF6B017C01809144018130C9
:1007100021F080916601813039F580914501813069
:1007200041F0809150018F3F21F08091670181302D
:10073000D9F4809153018F3FB9F06091530170E07B
:1007400090E080E0F1DA20E030E040E251E453DA7A
:100750009B01AC01C701B60199DB87FD05C0109272
:10076000270165E08BE0EDDE8091270181119ACFB2
:10077000F89485B78F7D85BF2F9A51DE80E38BBFBC
:1007800083E080BD78941092260110926F01109240
:100790002F0181E08093320166DF81E0F1DD9DBDB4
:1007A0008CBDCF91FF90EF90DF90CF9008951F9276
:1007B0000F920FB60F9211242F933F938F939F9315
:1007C000AF93BF938091340190913501A091360190
:1007D000B09137013091330126E0230F2D3768F1B6
:1007E00029E8230F0396A11DB11D209333018093A7
:1007F000340190933501A0933601B0933701809175
:10080000380190913901A0913A01B0913B010196D4
:10081000A11DB11D8093380190933901A0933A0135
:10082000B0933B01BF91AF919F918F913F912F91D9
:100830000F900FBE0F901F9018950296A11DB11D2D
:10084000D4CF1F920F920FB60F9211242F933F9384
:100850004F935F936F937F938F939F93AF93BF93C8
:10086000CF93EF93FF93C091A3008C2F8C7019F15D
:100870008FEF80939D0180919E0190919F019F77C2
:1008800090939F0180939E018091A300846C80933C
:10089000A300FF91EF91CF91BF91AF919F918F9165
:1008A0007F916F915F914F913F912F910F900FBE6C
:1008B0000F901F901895C6FD28C080919E019091C1
:1008C0009F0197FD22C0C7FF6FC0C1FFAFC020913D
:1008D000990130919A0180919B0190919C01281778
:1008E000390708F0A1C08091990190919A019C016B
:1008F0002F5F3F4F30939A01209399018B589E4F61
:10090000FC0180818093A0004FC0C0FF66C0809131
:100910009E0190919F0197FF29C080919E01909127
:100920009F012091A0009695982F882797958795ED
:1009300088279370822B90939F0180939E01E09172
:10094000A001F091A101309789F1109296011092C7
:10095000950160919D0180919E0190919F01099563
:10096000811124C087E08093A40093CF8091A000E0
:1009700090E090939F0180939E0180919D018F5FF5
:1009800080939D0180919E0190919F01897F99277D
:10099000803F9105A1F680919E0190919F01906802
:1009A00090939F0180939E0183E0DDCFC1FF10C033
:1009B00010929C0110929B01E091A401F091A5017D
:1009C000309709F0099510929A0110929901ECCF95
:1009D0001092980110929701E7CFC1FF15C0E091E6
:1009E000A601F091A701309709F009958FEF809348
:1009F0009D0180919E0190919F019F7790939F010F
:100A000080939E0180E443CFE091A201F091A30185
:100A1000309761F3109296011092950180919701A1
:100A2000909198010995E2CF82E09DCF8091970146
:100A300090919801809790F48091970190919801FE
:100A40009C012F5F3F4F3093980120939701209195
:100A5000A0008B589E4FFC012083A6CF86E083CF59
:100A60001F920F920FB60F9211242F933F934F9323
:100A70005F936F937F938F939F93AF93BF93EF9306
:100A8000FF9380912C0190912D01892B21F581E01C
:100A900077DC9DBD8CBDB5DC80912F01882339F0BA
:100AA00085E0F9DA0197A1F410922F0199DCFF910A
:100AB000EF91BF91AF919F918F917F916F915F91D6
:100AC0004F913F912F910F900FBE0F901F9018954F
:100AD00093DCD2DDECCF80E053DC9DBD8CBD91DC9E
:100AE000E6CF1F920F920FB60F921124CF92DF9292
:100AF000EF92FF922F933F934F935F936F937F9368
:100B00008F939F93AF93BF93EF93FF93C090280170
:100B1000D0902901E0902A01F0902B0162DB6093D4
:100B200028017093290180932A0190932B018091D1
:100B3000280190912901A0912A01B0912B018C19D3
:100B40009D09AE09BF090A97A105B10538F080914A
:100B500031018823C1F0109231018EDDFF91EF91B8
:100B6000BF91AF919F918F917F916F915F914F91C5
:100B70003F912F91FF90EF90DF90CF900F900FBE9D
:100B80000F901F90189581E086DA892B09F03FC0FD
:100B900061E081E093DA62E081E0C3DA21DC109267
:100BA00027018091320181110BC081E080933201D5
:100BB00080912E01811103C063E08BE0C2DC53DD24
:100BC00081E0DEDB9DBD8CBD10922E018091700115
:100BD000882321F280912601882309F4BFCF8091D8
:100BE0002F018111BBCF80916F018111B7CF53DAF3
:100BF000019709F0B3CF80916F01811103C060E0CC
:100C000088E09FDC81E080936F01E1DBA7CF109249
:100C10003201DCCF1F920F920FB60F9211242F9347
:100C20003F934F935F936F937F938F939F93AF9374
:100C3000BF93EF93FF9385E02EDA0197C1F4809183
:100C40002601811103C081E080932601FF91EF917D
:100C5000BF91AF919F918F917F916F915F914F91D4
:100C60003F912F910F900FBE0F901F90189580917C
:100C70002601882359F31092260110926F0181E01A
:100C800080932F01A4DB81E07BDB9DBD8CBDDECF9B
:100C900071E0D09ABA9800000000000094D5D09876
:100CA00092D5A894000000000000C89B87D5B2F040
:100CB0008894B2990894771F60F7D09A803011F029
:100CC000BA9801C0BA9A0000000000007CD5D09804
:100CD000A89400000000C89B71D575D500000000E5
:100CE000D09A872F9927089580E208950894881F45
:100CF00001C0880FB9F0D09A00000000000018F47D
:100D00000000BA9802C0BA9A00C05DD5D098A894E5
:100D1000000000000000C89B51D512F4882712C0C3
:100D200052D5E7CFD09A00000000BA984CD5992749
:100D30008827D098A8940000C89B40D57AF3B29B2E
:100D400081E041D500000000D09A089581E0089527
:100D5000CF93DF93EC01862FC9DF811108C08FA5E7
:100D6000811102C083E08FA790E080E002C081E0A3
:100D700090E0DF91CF910895682F86EB91E0E8CF66
:100D8000D09ABA9A20D5D0981ED5C89B17D5BA98B4
:100D90001AD508958F938F918F93C89B0FD5BA9AC8
:100DA00012D5A4DF882311F4EBDFF5CF0F9008955F
:100DB0000895D09A08D5BA9806D5D09804D5C89B7E
:100DC000FDD4BA9A00D592DF089581E00895AF92DC
:100DD000BF92DF92EF92FF920F931F93CF93DF9317
:100DE000EB01D62E880F991F8160E3DF9091E5011A
:100DF000911105C0811103C082E08093E50182EC6E
:100E0000E82E81E0F82E10E000E05E0181E0A81AF3
:100E1000B10881E0A016B10609F080E039DFF701E2
:100E200081937F010F5F1F4F0D1598F31092E20120
:100E3000C093E3011092E401A3DF8C2FDF91CF91E7
:100E40001F910F91FF90EF90DF90BF90AF900895AA
:100E5000C89BB4D4BA9AB7D449DF089581E0089505
:100E6000CF93C091E401880FCC2369F0A2DF8823DF
:100E700041F080E08093E50181E08093E401CF912F
:100E8000089582E0F7CFE4DF811101C0C2E0C09392
:100E9000E501F2CF1F93CF93DF93162FEA01E0DF36
:100EA000612F86EB91E054DF688186EB91E050DFA3
:100EB00067DFE6EBF1E016A617A6DF91CF911F9151
:100EC00008951F93CF93DF93C82FD0E0C35CDE4F0C
:100ED0001BE0AE01612F81E5DDDF1F5F21961F3032
:100EE000C1F7DF91CF911F910895CF93DF931F92A8
:100EF000CDB7DEB780E88983AE014F5F5F4F61E019
:100F000081E5C8DF0F90DF91CF910895CF92DF92F6
:100F1000EF92FF920F931F93CF9380912201833022
:100F2000A1F154F5813079F18091220182330CF4E2
:100F3000B7C08091220186330CF0B2C088E490DF04
:100F400080912201082E000C990BC29715DF809129
:100F50002201833309F0BAC061E070E088E490E0D8
:100F600036DF86EB91E0AEDACF911F910F91FF90C3
:100F7000EF90DF90CF90CCC9853009F454C0873012
:100F800099F647DBD1CFF7DACFCF82E415D97C01D0
:100F900083E412D98C01C0915601B701FF0C880B74
:100FA000990BC4D620E93BE04BE75DE373D76B01B7
:100FB0007C01B801110F880B990BB8D629E030EFEE
:100FC0004CE85AE367D79B01AC01C701B601AAD52B
:100FD0006B017C016C2FCC0F770B880B990BA6D67D
:100FE00020E030E048EC52E406D69B01AC01C7019A
:100FF000B60199D56B017C016BD6C62F83E0A1DACF
:101000006C2F70E090E080E091D69B01AC01C701AD
:10101000B60188D520E030E048EC52E43BD758D602
:1010200084E08FDA81CF83E4C7D8C0915701BC0137
:10103000990F880B990B7AD629E030EF4CE85AE3E8
:1010400029D72DEC3CEC4CE45DE3D5D56B017C015C
:101050006C2FCC0F770B880B990B68D620E030E013
:1010600048EC52E4C8D59B01AC01C701B6015BD581
:101070006B017C012DD6C62F85E063DA6C2F70E002
:1010800090E080E053D69B01AC01C701B6014AD580
:1010900020E030E048EC52E4FDD61AD686E0C1CF1D
:1010A00080912201863364F5E09122010E2E000C1E
:1010B000FF0BE35CFE4F608188EA91E0CF911F91C6
:1010C0000F91FF90EF90DF90CF900AC962E070E03F
:1010D00088E490E07CDE86EB91E0F4D919D986EBC8
:1010E00091E0F0D915D94CDE1092E4011092E5019F
:1010F000CF911F910F91FF90EF90DF90CF900895C7
:1011000080912201883484F681E5AADE8091220153
:10111000082E000C990BC6972FDE61E070E081E588
:1011200090E055DEDCCFCF93DF93C82FD62F98DE2B
:101130006D2F86EB91E00CDE61E070E08C2F90E08B
:1011400046DE86EB91E0BED9C82F1ADEE6EBF1E071
:1011500016A617A68C2FDF91CF9108951F920F929C
:101160000FB60F9211243F924F925F926F927F922F
:101170008F929F92AF92BF92CF92DF92EF92FF92A7
:101180000F931F932F933F934F935F936F937F938F
:101190008F939F93AF93BF93EF93FF93CF93DF937F
:1011A000CDB7DEB72597DEBFCDBF809125018F5F1C
:1011B0008093250180912501853019F41092250135
:1011C00006D980913001883728F4809130018F5FF3
:1011D0008093300160E088E4A6DF20916B0190915C
:1011E000690128170CF088C180916A0166E081309E
:1011F00009F48AC180916A01823041F466E08BE093
:10120000A0D980917001811101C0A4D864E081E56A
:101210008ADF8F7797D8182F65E081E584DF92D831
:10122000082F66E081E57FDF8DD8B82E67E081E585
:101230007ADF88D8682F70E090E080E020E831E520
:1012400041E050E0ACD66B017C018B2D90E060E179
:101250007EE094D6092E000CAA0BBB0BC80ED91E3B
:10126000EA1EFB1E802F90E06CE370E087D6092E0B
:10127000000CAA0BBB0B8C0D9D1DAE1DBF1D6C0180
:101280007D01C10ED11CE11CF11C809158015AD87E
:10129000182F8091590156D8082F80915A0152D8A1
:1012A000782E80915B014ED8682F70E090E080E04E
:1012B00020E831E541E050E072D64B015C01872D1A
:1012C00090E060E17EE05AD6092E000CAA0BBB0B21
:1012D000880E991EAA1EBB1E802F90E06CE370E062
:1012E0004DD6092E000CAA0BBB0B880D991DAA1D0B
:1012F000BB1D4C015D01810E911CA11CB11C809194
:101300005D0120D8182F80915E011CD8082F809194
:101310005F0118D8382E8091600114D8682F70E0D2
:1013200090E080E020E831E541E050E038D62B0144
:101330003C01832D90E060E17EE020D6092E000C78
:10134000AA0BBB0B480E591E6A1E7B1E802F90E015
:101350006CE370E013D6092E000CAA0BBB0B840DB6
:10136000951DA61DB71D9C01AD01210F311D411D0D
:10137000511D2A833B834C835D83809170018823B8
:1013800009F4CDC081E091E081149104A104B1047D
:1013900031F02091460191E0213009F090E02A815E
:1013A0003B814C815D81232B242B252B09F4FBC031
:1013B0003091470121E0313009F020E0B701A6016A
:1013C000481959096A097B098A809B80AC80BD80D5
:1013D000C818D908EA08FB08882309F4F2C091115B
:1013E00038C1423051056105710508F0DEC061E089
:1013F00089E0A7D861E087E2A4D88091700161E01C
:10140000882309F440C181E0809324018091230165
:101410008F5F80932301809123018F3F79F5109294
:1014200023018091630142E651E0813021F560E0C3
:1014300088E479DE682F8A310CF0DFC0062E000CBC
:10144000770B6A517109072E000C880B990B6ED42B
:1014500024E035EC41E05EE31DD535D49091620186
:10146000892F8F7396FD8054680F67FD60586983DC
:10147000AE014F5F5F4F62E081E50CDD809170014E
:10148000811113C080912401882379F08091240177
:101490008F5F8093240180912401843031F4109275
:1014A000240168E08BE04DD855D70F900F900F9036
:1014B0000F900F90DF91CF91FF91EF91BF91AF917E
:1014C0009F918F917F916F915F914F913F912F915C
:1014D0001F910F91FF90EF90DF90CF90BF90AF9052
:1014E0009F908F907F906F905F904F903F900F9064
:1014F0000FBE0F901F90189589170CF087CE809122
:101500006801813029F467E08BE01BD82BD77ECEB1
:101510008091680167E0823009F078CE70CE8091CA
:101520004401882309F42ECF15B12F9A24D82B011A
:101530003C0115B96091500170E090E080E0F4D377
:1015400020E030E040E251E456D320914501A30170
:101550002130D9F492014BD387FF23C0609153010E
:10156000809153018F3F09F40DCF70E090E080E04F
:10157000DBD320E030E040E251E43DD3A30192010F
:1015800036D3881F8827881FFECE920130D387FD6F
:10159000F9CE809150018F3F09F4F4CE61E088E0EC
:1015A000D0D780E0F0CE21E009CF211173C0F7FE43
:1015B00054C077FF17C04E3F5F4F6F4F7F4F94F07F
:1015C00009C091110BC077FF09C04E3F5F4F6F4FAD
:1015D0007F4F24F08ADC8BE174DC18CF211116CF09
:1015E000F7FE14CF2EEFC2162FEFD206E206F20658
:1015F0000CF40CCF7ADC80E2EFCF8FED860F8A30CF
:1016000078F4062E000C770B60527109072E000C3F
:10161000880B990B8BD32AE731EC4CEB5DEB1CCF9D
:101620006B32ACF0062E000C770B6A527109072E54
:10163000000C880B990B7AD32BE131E94DE85EEB76
:1016400029D428ED31EF4BE65FE36CD206CF60E0A2
:1016500005CF2111DBCEF7FCC5CF32E0C316D10494
:10166000E104F104A4F461E08AE06BD761E088E270
:1016700068D780916F01882309F4C8CE80912F012B
:101680008111C4CE62E08BE05CD764D6BFCE9111ED
:10169000BDCE99CF77FFBACE4E3F5F4F6F4F7F4F92
:1016A0000CF4B4CE97CF88EA91E0E2D6892B09F406
:1016B00076C088EA91E0C2D680932201809122010F
:1016C0008233DCF0809122018633BCF488E4C8DBED
:1016D00080912201082E000C990BC2974DDB80915E
:1016E0002201833399F488EA91E0A8D645DB48DBF0
:1016F0001092E4011092E501089580912201863351
:1017000074F4809122018031BCF40895809122010B
:10171000823369F388EA91E091D62EDBE4CF8091A1
:101720002201883474F781E59BDB80912201082E29
:10173000000C990BC697F1CF8091220182337CF582
:1017400088EA91E095D6892B51F1809122018B3165
:101750003CF08091220180321CF460E089E0F1D6F7
:101760008091220180323CF08091220185321CF46C
:1017700060E08AE0E6D688EA91E060D6682F809142
:101780002201DFD680912201853249F480916201E5
:101790008093750142E651E062E081E57BCB0895DC
:1017A000BA98D098C298D89888279927B29B08955C
:1017B000C89B089581E0089581E00895C89BFECFFD
:1017C000A8940895089598E09A95F1F708950895DA
:1017D000E8EAF1E01382128288EE93E0A0E0B0E044
:1017E00084839583A683B78324E031E0318320830B
:1017F00025E731E035872487E6EBF1E0138212829A
:1018000084839583A683B78384E191E09183808369
:10181000089581E2E1E0F0E08093570084918150E7
:10182000809374000000789480B7836080BF83B792
:10183000877F83BF83B7887F836083BF89B78160D9
:1018400089BF8091C900887F8093C9008091CA00B8
:101850008C7F81608093CA008091C900877E8093CD
:10186000C9008091C900887F83608093C9008EB5CC
:10187000887F8EBD8FB58C7F81608FBD8EB5877E52
:101880008EBD8EB5887F83608EBD80E180936700BA
:1018900084EA809368008CEF8093660085B1887F2E
:1018A000866085B92F9A1092E2011092E30110929E
:1018B000E5011092E40174DF60E080E032D462E080
:1018C00081E02FD461E083E02CD460E085E029D46E
:1018D00060E081E426D460E082E423D460E083E425
:1018E00020D462E084E01DD462E086E01AD484D57E
:1018F00081E080933C0196E290933D0192E09093C9
:10190000490198E090934D0194E090934F019FEF2F
:101910009093500124E62093510122E32093520139
:101920009093530194E190935501909356018093C5
:1019300063018BE48093690180E580936B01D0E0C3
:10194000C0E0CE01D9D0FE01E35CFE4F8F3F09F02D
:10195000CCC01081CE01D0D0181719F0612FCE0164
:10196000D3D02196C233D10561F74BE651E063E055
:1019700088E490DA49E651E062E088E48BDA42E6F6
:1019800051E062E081E586DA80914D01883008F40B
:10199000AEC080914D01883708F0A9C080914D01FB
:1019A000E091B401F091B501880F8093A2001092EC
:1019B000A1008FEF80A78CEB8093A50083E492E0D9
:1019C00094A783A783E59BE096A785A786E897E081
:1019D00090AB87A7F89480E38BBF83E080BD80E263
:1019E00082BB1DD5F89481B5806481BD81B58660C8
:1019F00081BD7894789480914E01813009F07AC04D
:101A000080916C0190E068EE73E0B8D2BC01990F50
:101A1000880B990B0CD427D6E4D3C0907101D090D9
:101A20007201E0907301F09074016C157D058E05D4
:101A30009F05C0F0C0907101D0907201E0907301D9
:101A4000F09074019B01AC012C193D094E095F090E
:101A500069017A0130E4C31632E4D3063FE0E306BD
:101A6000F104D0F26093710170937201809373015D
:101A70009093740180917001882371F280916F01BD
:101A8000882351F280914401813021F080916601D8
:101A9000813011F680914501882329F080916701FA
:101AA000813009F0B9CF809150018F3F09F4B4CF54
:101AB00062D56B017C016091500170E090E080E0A4
:101AC00033D120E030E040E251E495D09B01AC01FD
:101AD000C701B6018CD087FF9FCF61E088E031D588
:101AE00064E08BE02ED536D497CF80833ACF88E060
:101AF00090E056CFC1D590CFE199FECF9FBB8EBB72
:101B0000E09A99278DB30895262FE199FECF1CBA4C
:101B10009FBB8EBB2DBB0FB6F894E29AE19A0FBE25
:101B2000019608955058BB27AA270ED075C166D1DB
:101B300030F06BD120F031F49F3F11F41EF45BC103
:101B40000EF4E095E7FB51C1E92F77D180F3BA1786
:101B5000620773078407950718F071F49EF58FC12B
:101B60000EF4E0950B2EBA2FA02D0B01B9019001B8
:101B70000C01CA01A0011124FF27591B99F0593FFC
:101B800050F4503E68F11A16F040A22F232F342F44
:101B90004427585FF3CF469537952795A795F04092
:101BA0005395C9F77EF41F16BA0B620B730B840BA7
:101BB000BAF09150A1F0FF0FBB1F661F771F881F5F
:101BC000C2F70EC0BA0F621F731F841F48F48795B7
:101BD00077956795B795F7959E3F08F0B3CF9395A6
:101BE000880F08F09927EE0F979587950895D9D01B
:101BF00008F481E008950CD00FC107D140F0FED069
:101C000030F021F45F3F19F0F0C0511139C1F3C039
:101C100014D198F39923C9F35523B1F3951B550BB0
:101C2000BB27AA2762177307840738F09F5F5F4FAF
:101C3000220F331F441FAA1FA9F333D00E2E3AF0F0
:101C4000E0E830D091505040E695001CCAF729D00A
:101C5000FE2F27D0660F771F881FBB1F2617370759
:101C60004807AB07B0E809F0BB0B802DBF01FF2789
:101C700093585F4F2AF09E3F510568F0B6C000C1EF
:101C80005F3FECF3983EDCF3869577956795B795C3
:101C9000F7959F5FC9F7880F911D9695879597F9DE
:101CA0000895E1E0660F771F881FBB1F6217730757
:101CB0008407BA0720F0621B730B840BBA0BEE1F6C
:101CC00088F7E095089504D06894B111D9C00895BB
:101CD000BCD088F09F5790F0B92F9927B751A0F04A
:101CE000D1F0660F771F881F991F1AF0BA95C9F7B0
:101CF00012C0B13081F0C3D0B1E00895C0C0672FE9
:101D0000782F8827B85F39F0B93FCCF3869577955F
:101D10006795B395D9F73EF4909580957095619548
:101D20007F4F8F4F9F4F0895E89409C097FB3EF473
:101D300090958095709561957F4F8F4F9F4F992318
:101D4000A9F0F92F96E9BB279395F6958795779596
:101D50006795B795F111F8CFFAF4BB0F11F460FF56
:101D60001BC06F5F7F4F8F4F9F4F16C0882311F0AE
:101D700096E911C0772321F09EE8872F762F05C0C2
:101D8000662371F096E8862F70E060E02AF09A955D
:101D9000660F771F881FDAF7880F9695879597F952
:101DA0000895990F0008550FAA0BE0E8FEEF1616EC
:101DB0001706E807F907C0F012161306E407F5073F
:101DC00098F0621B730B840B950B39F40A2661F0B3
:101DD000232B242B252B21F408950A2609F4A14056
:101DE000A6958FEF811D811D089597F99F6780E863
:101DF00070E060E008959FEF80EC089500240A945D
:101E00001616170618060906089500240A941216D5
:101E10001306140605060895092E0394000C11F408
:101E2000882352F0BB0F40F4BF2B11F460FF04C0B5
:101E30006F5F7F4F8F4F9F4F089557FD9058440F0E
:101E4000551F59F05F3F71F04795880F97FB991F19
:101E500061F09F3F79F087950895121613061406D6
:101E6000551FF2CF4695F1DF08C016161706180663
:101E7000991FF1CF86957105610508940895E8943E
:101E8000BB2766277727CB0197F908958ADF08F4E7
:101E90008FEF08950AD0C0CFB1DF28F0B6DF18F079
:101EA000952309F0A2CFA7CFEBCFC7DFA8F39923E3
:101EB000D9F35523C9F3950F50E0551FAA27EE27F4
:101EC000FF27BB2700240894679520F4E20FF31F37
:101ED000B41F0A1E220F331F441FAA1F6695A9F7BD
:101EE000779530F4F30FB41F0A1E121E08F46395A1
:101EF000330F441FAA1F221F769599F7879520F468
:101F0000B40F0A1E121E631F440FAA1F221F331F85
:101F10008695A9F7862F712D602D11249F5750406B
:101F20008AF0E1F088234AF0EE0FFF1FBB1F661F07
:101F3000771F881F91505040A9F79E3F510570F0C0
:101F400054CF9ECF5F3FECF3983EDCF386957795B8
:101F50006795B795F795E7959F5FC1F7FE2B880FBB
:101F6000911D9695879597F90895002480FD060E9A
:101F7000660F11F08695D1F7802D0895002455271E
:101F800004C0080E591F880F991F009729F07695F5
:101F90006795B8F37105B9F7802D952F0895EE2751
:101FA000FF27AA27BB2708C0A20FB31FE41FF51FF6
:101FB000220F331F441F551F969587957795679578
:101FC00098F37040A9F7009799F7BD01CF010895E4
:101FD000EE0FFF1F0590F491E02D0994F894FFCFC8
:101FE000000000007001400138021E028D018C01CA
:101FF00000000000A80679027302620251028C01FF
:00000001FF
